{
  "_format": "hh-sol-artifact-1",
  "contractName": "SecureVote",
  "sourceName": "contracts/SecureVote.sol",
  "abi": [
    {
      "inputs": [
        {
          "internalType": "address",
          "name": "_semaphoreAddress",
          "type": "address"
        }
      ],
      "stateMutability": "nonpayable",
      "type": "constructor"
    },
    {
      "anonymous": false,
      "inputs": [
        {
          "indexed": true,
          "internalType": "uint256",
          "name": "electionId",
          "type": "uint256"
        },
        {
          "indexed": false,
          "internalType": "string",
          "name": "title",
          "type": "string"
        }
      ],
      "name": "ElectionCreated",
      "type": "event"
    },
    {
      "anonymous": false,
      "inputs": [
        {
          "indexed": true,
          "internalType": "uint256",
          "name": "electionId",
          "type": "uint256"
        },
        {
          "indexed": false,
          "internalType": "enum SecureVote.ElectionState",
          "name": "newState",
          "type": "uint8"
        }
      ],
      "name": "ElectionStateChanged",
      "type": "event"
    },
    {
      "anonymous": false,
      "inputs": [
        {
          "indexed": true,
          "internalType": "address",
          "name": "voter",
          "type": "address"
        },
        {
          "indexed": true,
          "internalType": "uint256",
          "name": "electionId",
          "type": "uint256"
        },
        {
          "indexed": true,
          "internalType": "uint256",
          "name": "candidateIndex",
          "type": "uint256"
        }
      ],
      "name": "Voted",
      "type": "event"
    },
    {
      "anonymous": false,
      "inputs": [
        {
          "indexed": true,
          "internalType": "address",
          "name": "user",
          "type": "address"
        }
      ],
      "name": "Whitelisted",
      "type": "event"
    },
    {
      "inputs": [
        {
          "internalType": "address",
          "name": "_user",
          "type": "address"
        }
      ],
      "name": "addToWhitelist",
      "outputs": [],
      "stateMutability": "nonpayable",
      "type": "function"
    },
    {
      "inputs": [
        {
          "internalType": "string",
          "name": "_title",
          "type": "string"
        },
        {
          "internalType": "string[]",
          "name": "_candidates",
          "type": "string[]"
        },
        {
          "internalType": "string[]",
          "name": "_logoUrls",
          "type": "string[]"
        },
        {
          "internalType": "string[]",
          "name": "_manifestos",
          "type": "string[]"
        },
        {
          "internalType": "string[]",
          "name": "_videos",
          "type": "string[]"
        },
        {
          "internalType": "uint256",
          "name": "_startTime",
          "type": "uint256"
        },
        {
          "internalType": "uint256",
          "name": "_endTime",
          "type": "uint256"
        }
      ],
      "name": "createElection",
      "outputs": [],
      "stateMutability": "nonpayable",
      "type": "function"
    },
    {
      "inputs": [],
      "name": "electionCount",
      "outputs": [
        {
          "internalType": "uint256",
          "name": "",
          "type": "uint256"
        }
      ],
      "stateMutability": "view",
      "type": "function"
    },
    {
      "inputs": [
        {
          "internalType": "uint256",
          "name": "",
          "type": "uint256"
        }
      ],
      "name": "elections",
      "outputs": [
        {
          "internalType": "uint256",
          "name": "id",
          "type": "uint256"
        },
        {
          "internalType": "string",
          "name": "title",
          "type": "string"
        },
        {
          "internalType": "enum SecureVote.ElectionState",
          "name": "state",
          "type": "uint8"
        },
        {
          "internalType": "uint256",
          "name": "startTime",
          "type": "uint256"
        },
        {
          "internalType": "uint256",
          "name": "endTime",
          "type": "uint256"
        }
      ],
      "stateMutability": "view",
      "type": "function"
    },
    {
      "inputs": [
        {
          "internalType": "uint256",
          "name": "_electionId",
          "type": "uint256"
        }
      ],
      "name": "getElectionCandidates",
      "outputs": [
        {
          "components": [
            {
              "internalType": "string",
              "name": "name",
              "type": "string"
            },
            {
              "internalType": "string",
              "name": "logoUrl",
              "type": "string"
            },
            {
              "internalType": "string",
              "name": "manifestoHash",
              "type": "string"
            },
            {
              "internalType": "string",
              "name": "videoHash",
              "type": "string"
            }
          ],
          "internalType": "struct SecureVote.Candidate[]",
          "name": "",
          "type": "tuple[]"
        }
      ],
      "stateMutability": "view",
      "type": "function"
    },
    {
      "inputs": [],
      "name": "getPastElections",
      "outputs": [
        {
          "components": [
            {
              "internalType": "uint256",
              "name": "id",
              "type": "uint256"
            },
            {
              "internalType": "string",
              "name": "title",
              "type": "string"
            },
            {
              "internalType": "string",
              "name": "winnerName",
              "type": "string"
            },
            {
              "internalType": "uint256",
              "name": "winnerVotes",
              "type": "uint256"
            },
            {
              "internalType": "uint256",
              "name": "totalVotes",
              "type": "uint256"
            }
          ],
          "internalType": "struct SecureVote.PastElection[]",
          "name": "",
          "type": "tuple[]"
        }
      ],
      "stateMutability": "view",
      "type": "function"
    },
    {
      "inputs": [
        {
          "internalType": "uint256",
          "name": "_electionId",
          "type": "uint256"
        },
        {
          "internalType": "uint256",
          "name": "_candidateIndex",
          "type": "uint256"
        }
      ],
      "name": "getVotes",
      "outputs": [
        {
          "internalType": "uint256",
          "name": "",
          "type": "uint256"
        }
      ],
      "stateMutability": "view",
      "type": "function"
    },
    {
      "inputs": [],
      "name": "groupId",
      "outputs": [
        {
          "internalType": "uint256",
          "name": "",
          "type": "uint256"
        }
      ],
      "stateMutability": "view",
      "type": "function"
    },
    {
      "inputs": [
        {
          "internalType": "address",
          "name": "",
          "type": "address"
        }
      ],
      "name": "hasRegisteredIdentity",
      "outputs": [
        {
          "internalType": "bool",
          "name": "",
          "type": "bool"
        }
      ],
      "stateMutability": "view",
      "type": "function"
    },
    {
      "inputs": [
        {
          "internalType": "address",
          "name": "_user",
          "type": "address"
        }
      ],
      "name": "isWhitelisted",
      "outputs": [
        {
          "internalType": "bool",
          "name": "",
          "type": "bool"
        }
      ],
      "stateMutability": "view",
      "type": "function"
    },
    {
      "inputs": [],
      "name": "owner",
      "outputs": [
        {
          "internalType": "address",
          "name": "",
          "type": "address"
        }
      ],
      "stateMutability": "view",
      "type": "function"
    },
    {
      "inputs": [
        {
          "internalType": "uint256",
          "name": "",
          "type": "uint256"
        }
      ],
      "name": "pastElections",
      "outputs": [
        {
          "internalType": "uint256",
          "name": "id",
          "type": "uint256"
        },
        {
          "internalType": "string",
          "name": "title",
          "type": "string"
        },
        {
          "internalType": "string",
          "name": "winnerName",
          "type": "string"
        },
        {
          "internalType": "uint256",
          "name": "winnerVotes",
          "type": "uint256"
        },
        {
          "internalType": "uint256",
          "name": "totalVotes",
          "type": "uint256"
        }
      ],
      "stateMutability": "view",
      "type": "function"
    },
    {
      "inputs": [
        {
          "internalType": "uint256",
          "name": "identityCommitment",
          "type": "uint256"
        }
      ],
      "name": "registerIdentity",
      "outputs": [],
      "stateMutability": "nonpayable",
      "type": "function"
    },
    {
      "inputs": [],
      "name": "semaphore",
      "outputs": [
        {
          "internalType": "contract ISemaphore",
          "name": "",
          "type": "address"
        }
      ],
      "stateMutability": "view",
      "type": "function"
    },
    {
      "inputs": [
        {
          "internalType": "uint256",
          "name": "_electionId",
          "type": "uint256"
        }
      ],
      "name": "terminateElection",
      "outputs": [],
      "stateMutability": "nonpayable",
      "type": "function"
    },
    {
      "inputs": [
        {
          "internalType": "uint256",
          "name": "_electionId",
          "type": "uint256"
        },
        {
          "internalType": "uint256",
          "name": "_candidateIndex",
          "type": "uint256"
        },
        {
          "components": [
            {
              "internalType": "uint256",
              "name": "merkleTreeDepth",
              "type": "uint256"
            },
            {
              "internalType": "uint256",
              "name": "merkleTreeRoot",
              "type": "uint256"
            },
            {
              "internalType": "uint256",
              "name": "nullifier",
              "type": "uint256"
            },
            {
              "internalType": "uint256",
              "name": "message",
              "type": "uint256"
            },
            {
              "internalType": "uint256",
              "name": "scope",
              "type": "uint256"
            },
            {
              "internalType": "uint256[8]",
              "name": "points",
              "type": "uint256[8]"
            }
          ],
          "internalType": "struct ISemaphore.SemaphoreProof",
          "name": "proof",
          "type": "tuple"
        }
      ],
      "name": "vote",
      "outputs": [],
      "stateMutability": "nonpayable",
      "type": "function"
    },
    {
      "inputs": [
        {
          "internalType": "address",
          "name": "",
          "type": "address"
        }
      ],
      "name": "whitelist",
      "outputs": [
        {
          "internalType": "bool",
          "name": "",
          "type": "bool"
        }
      ],
      "stateMutability": "view",
      "type": "function"
    }
  ],
  "bytecode": "0x60806040523480156200001157600080fd5b5060405162003397380380620033978339818101604052810190620000379190620001d2565b336000806101000a81548173ffffffffffffffffffffffffffffffffffffffff021916908373ffffffffffffffffffffffffffffffffffffffff16021790555080600160006101000a81548173ffffffffffffffffffffffffffffffffffffffff021916908373ffffffffffffffffffffffffffffffffffffffff160217905550600160009054906101000a900473ffffffffffffffffffffffffffffffffffffffff1673ffffffffffffffffffffffffffffffffffffffff16635c3f3b60306040518263ffffffff1660e01b815260040162000115919062000215565b6020604051808303816000875af115801562000135573d6000803e3d6000fd5b505050506040513d601f19601f820116820180604052508101906200015b91906200026d565b600281905550506200029f565b600080fd5b600073ffffffffffffffffffffffffffffffffffffffff82169050919050565b60006200019a826200016d565b9050919050565b620001ac816200018d565b8114620001b857600080fd5b50565b600081519050620001cc81620001a1565b92915050565b600060208284031215620001eb57620001ea62000168565b5b6000620001fb84828501620001bb565b91505092915050565b6200020f816200018d565b82525050565b60006020820190506200022c600083018462000204565b92915050565b6000819050919050565b620002478162000232565b81146200025357600080fd5b50565b60008151905062000267816200023c565b92915050565b60006020828403121562000286576200028562000168565b5b6000620002968482850162000256565b91505092915050565b6130e880620002af6000396000f3fe608060405234801561001057600080fd5b506004361061010b5760003560e01c80638fd73d11116100a2578063a0f44c9211610071578063a0f44c92146102e6578063ae2fa41814610304578063d1f1956c14610320578063e43252d71461033e578063f346d6c01461035a5761010b565b80638fd73d111461023457806391f3663314610268578063997d2830146102985780639b19251a146102b65761010b565b80636fd71207116100de5780636fd71207146101c05780637b5d2534146101dc5780638adc2e10146101fa5780638da5cb5b146102165761010b565b80633af32abf14610110578063453cfe68146101405780635e12845e1461015c5780635e6fef011461018c575b600080fd5b61012a60048036038101906101259190611a12565b61038a565b6040516101379190611a5a565b60405180910390f35b61015a60048036038101906101559190611ad0565b6103e0565b005b61017660048036038101906101719190611b24565b6106b3565b6040516101839190611d1b565b60405180910390f35b6101a660048036038101906101a19190611b24565b610970565b6040516101b7959493929190611e0d565b60405180910390f35b6101da60048036038101906101d59190611b24565b610a3b565b005b6101e4610c40565b6040516101f19190611ec6565b60405180910390f35b610214600480360381019061020f91906120fc565b610c66565b005b61021e61103e565b60405161022b9190612239565b60405180910390f35b61024e60048036038101906102499190611b24565b611062565b60405161025f959493929190612254565b60405180910390f35b610282600480360381019061027d91906122b5565b6111b8565b60405161028f91906122f5565b60405180910390f35b6102a06111e7565b6040516102ad91906122f5565b60405180910390f35b6102d060048036038101906102cb9190611a12565b6111ed565b6040516102dd9190611a5a565b60405180910390f35b6102ee61120d565b6040516102fb91906122f5565b60405180910390f35b61031e60048036038101906103199190611b24565b611213565b005b610328611400565b604051610335919061245e565b60405180910390f35b61035860048036038101906103539190611a12565b6115a1565b005b610374600480360381019061036f9190611a12565b6116cd565b6040516103819190611a5a565b60405180910390f35b6000600360008373ffffffffffffffffffffffffffffffffffffffff1673ffffffffffffffffffffffffffffffffffffffff16815260200190815260200160002060009054906101000a900460ff169050919050565b60006005600085815260200190815260200160002090506001600281111561040b5761040a611d96565b5b8160030160009054906101000a900460ff16600281111561042f5761042e611d96565b5b1461046f576040517f08c379a0000000000000000000000000000000000000000000000000000000008152600401610466906124cc565b60405180910390fd5b80600401544210158015610487575080600501544211155b6104c6576040517f08c379a00000000000000000000000000000000000000000000000000000000081526004016104bd90612538565b60405180910390fd5b8060020180549050831061050f576040517f08c379a0000000000000000000000000000000000000000000000000000000008152600401610506906125a4565b60405180910390fd5b83826080013514610555576040517f08c379a000000000000000000000000000000000000000000000000000000000815260040161054c90612636565b60405180910390fd5b8282606001351461059b576040517f08c379a0000000000000000000000000000000000000000000000000000000008152600401610592906126c8565b60405180910390fd5b600160009054906101000a900473ffffffffffffffffffffffffffffffffffffffff1673ffffffffffffffffffffffffffffffffffffffff1663d0d898dd600254846040518363ffffffff1660e01b81526004016105fa9291906127d0565b600060405180830381600087803b15801561061457600080fd5b505af1158015610628573d6000803e3d6000fd5b50505050600160066000868152602001908152602001600020600085815260200190815260200160002060008282546106619190612829565b9250508190555082843373ffffffffffffffffffffffffffffffffffffffff167fea66f58e474bc09f580000e81f31b334d171db387d0c6098ba47bd897741679b60405160405180910390a450505050565b606060056000838152602001908152602001600020600201805480602002602001604051908101604052809291908181526020016000905b82821015610965578382906000526020600020906004020160405180608001604052908160008201805461071e9061288c565b80601f016020809104026020016040519081016040528092919081815260200182805461074a9061288c565b80156107975780601f1061076c57610100808354040283529160200191610797565b820191906000526020600020905b81548152906001019060200180831161077a57829003601f168201915b505050505081526020016001820180546107b09061288c565b80601f01602080910402602001604051908101604052809291908181526020018280546107dc9061288c565b80156108295780601f106107fe57610100808354040283529160200191610829565b820191906000526020600020905b81548152906001019060200180831161080c57829003601f168201915b505050505081526020016002820180546108429061288c565b80601f016020809104026020016040519081016040528092919081815260200182805461086e9061288c565b80156108bb5780601f10610890576101008083540402835291602001916108bb565b820191906000526020600020905b81548152906001019060200180831161089e57829003601f168201915b505050505081526020016003820180546108d49061288c565b80601f01602080910402602001604051908101604052809291908181526020018280546109009061288c565b801561094d5780601f106109225761010080835404028352916020019161094d565b820191906000526020600020905b81548152906001019060200180831161093057829003601f168201915b505050505081525050815260200190600101906106eb565b505050509050919050565b60056020528060005260406000206000915090508060000154908060010180546109999061288c565b80601f01602080910402602001604051908101604052809291908181526020018280546109c59061288c565b8015610a125780601f106109e757610100808354040283529160200191610a12565b820191906000526020600020905b8154815290600101906020018083116109f557829003601f168201915b5050505050908060030160009054906101000a900460ff16908060040154908060050154905085565b600360003373ffffffffffffffffffffffffffffffffffffffff1673ffffffffffffffffffffffffffffffffffffffff16815260200190815260200160002060009054906101000a900460ff16610ac7576040517f08c379a0000000000000000000000000000000000000000000000000000000008152600401610abe90612909565b60405180910390fd5b600460003373ffffffffffffffffffffffffffffffffffffffff1673ffffffffffffffffffffffffffffffffffffffff16815260200190815260200160002060009054906101000a900460ff1615610b54576040517f08c379a0000000000000000000000000000000000000000000000000000000008152600401610b4b90612975565b60405180910390fd5b6001600460003373ffffffffffffffffffffffffffffffffffffffff1673ffffffffffffffffffffffffffffffffffffffff16815260200190815260200160002060006101000a81548160ff021916908315150217905550600160009054906101000a900473ffffffffffffffffffffffffffffffffffffffff1673ffffffffffffffffffffffffffffffffffffffff16631783efc3600254836040518363ffffffff1660e01b8152600401610c0b929190612995565b600060405180830381600087803b158015610c2557600080fd5b505af1158015610c39573d6000803e3d6000fd5b5050505050565b600160009054906101000a900473ffffffffffffffffffffffffffffffffffffffff1681565b60008054906101000a900473ffffffffffffffffffffffffffffffffffffffff1673ffffffffffffffffffffffffffffffffffffffff163373ffffffffffffffffffffffffffffffffffffffff1614610cf4576040517f08c379a0000000000000000000000000000000000000000000000000000000008152600401610ceb90612a0a565b60405180910390fd5b8451865114610d38576040517f08c379a0000000000000000000000000000000000000000000000000000000008152600401610d2f90612a76565b60405180910390fd5b8351865114610d7c576040517f08c379a0000000000000000000000000000000000000000000000000000000008152600401610d7390612ae2565b60405180910390fd5b8251865114610dc0576040517f08c379a0000000000000000000000000000000000000000000000000000000008152600401610db790612b4e565b60405180910390fd5b808210610e02576040517f08c379a0000000000000000000000000000000000000000000000000000000008152600401610df990612bba565b60405180910390fd5b60076000815480929190610e1590612bda565b919050555060006005600060075481526020019081526020016000209050600754816000018190555087816001019081610e4f9190612dc4565b5060018160030160006101000a81548160ff02191690836002811115610e7857610e77611d96565b5b021790555082816004018190555081816005018190555060005b8751811015610fbe578160020160405180608001604052808a8481518110610ebd57610ebc612e96565b5b60200260200101518152602001898481518110610edd57610edc612e96565b5b60200260200101518152602001888481518110610efd57610efc612e96565b5b60200260200101518152602001878481518110610f1d57610f1c612e96565b5b602002602001015181525090806001815401808255809150506001900390600052602060002090600402016000909190919091506000820151816000019081610f669190612dc4565b506020820151816001019081610f7c9190612dc4565b506040820151816002019081610f929190612dc4565b506060820151816003019081610fa89190612dc4565b5050508080610fb690612bda565b915050610e92565b506007547f52be7c4e77b4de76b7607d621492061fe13b58597e72dfb5e51ab8f6187ed14189604051610ff19190612ec5565b60405180910390a26007547fe58b4afb599bf8dba07885ae4a580e84c53d73a1215ab267654fdb1322c9057a600160405161102c9190612ee7565b60405180910390a25050505050505050565b60008054906101000a900473ffffffffffffffffffffffffffffffffffffffff1681565b6008818154811061107257600080fd5b906000526020600020906005020160009150905080600001549080600101805461109b9061288c565b80601f01602080910402602001604051908101604052809291908181526020018280546110c79061288c565b80156111145780601f106110e957610100808354040283529160200191611114565b820191906000526020600020905b8154815290600101906020018083116110f757829003601f168201915b5050505050908060020180546111299061288c565b80601f01602080910402602001604051908101604052809291908181526020018280546111559061288c565b80156111a25780601f10611177576101008083540402835291602001916111a2565b820191906000526020600020905b81548152906001019060200180831161118557829003601f168201915b5050505050908060030154908060040154905085565b600060066000848152602001908152602001600020600083815260200190815260200160002054905092915050565b60075481565b60036020528060005260406000206000915054906101000a900460ff1681565b60025481565b60008054906101000a900473ffffffffffffffffffffffffffffffffffffffff1673ffffffffffffffffffffffffffffffffffffffff163373ffffffffffffffffffffffffffffffffffffffff16146112a1576040517f08c379a000000000000000000000000000000000000000000000000000000000815260040161129890612f4e565b60405180910390fd5b6000811180156112b357506007548111155b6112f2576040517f08c379a00000000000000000000000000000000000000000000000000000000081526004016112e990612fba565b60405180910390fd5b6001600281111561130657611305611d96565b5b6005600083815260200190815260200160002060030160009054906101000a900460ff16600281111561133c5761133b611d96565b5b1461137c576040517f08c379a000000000000000000000000000000000000000000000000000000000815260040161137390613026565b60405180910390fd5b60026005600083815260200190815260200160002060030160006101000a81548160ff021916908360028111156113b6576113b5611d96565b5b02179055506113c4816116ed565b807fe58b4afb599bf8dba07885ae4a580e84c53d73a1215ab267654fdb1322c9057a60026040516113f59190612ee7565b60405180910390a250565b60606008805480602002602001604051908101604052809291908181526020016000905b8282101561159857838290600052602060002090600502016040518060a0016040529081600082015481526020016001820180546114619061288c565b80601f016020809104026020016040519081016040528092919081815260200182805461148d9061288c565b80156114da5780601f106114af576101008083540402835291602001916114da565b820191906000526020600020905b8154815290600101906020018083116114bd57829003601f168201915b505050505081526020016002820180546114f39061288c565b80601f016020809104026020016040519081016040528092919081815260200182805461151f9061288c565b801561156c5780601f106115415761010080835404028352916020019161156c565b820191906000526020600020905b81548152906001019060200180831161154f57829003601f168201915b505050505081526020016003820154815260200160048201548152505081526020019060010190611424565b50505050905090565b60008054906101000a900473ffffffffffffffffffffffffffffffffffffffff1673ffffffffffffffffffffffffffffffffffffffff163373ffffffffffffffffffffffffffffffffffffffff161461162f576040517f08c379a000000000000000000000000000000000000000000000000000000000815260040161162690613092565b60405180910390fd5b6001600360008373ffffffffffffffffffffffffffffffffffffffff1673ffffffffffffffffffffffffffffffffffffffff16815260200190815260200160002060006101000a81548160ff0219169083151502179055508073ffffffffffffffffffffffffffffffffffffffff167faab7954e9d246b167ef88aeddad35209ca2489d95a8aeb59e288d9b19fae5a5460405160405180910390a250565b60046020528060005260406000206000915054906101000a900460ff1681565b60006005600083815260200190815260200160002090506000806000805b8460020180549050811015611774576000600660008881526020019081526020016000206000838152602001908152602001600020549050808361174f9190612829565b925084811115611760578094508193505b50808061176c90612bda565b91505061170b565b5060086040518060a001604052808781526020018660010180546117979061288c565b80601f01602080910402602001604051908101604052809291908181526020018280546117c39061288c565b80156118105780601f106117e557610100808354040283529160200191611810565b820191906000526020600020905b8154815290600101906020018083116117f357829003601f168201915b505050505081526020016000876002018054905011611864576040518060400160405280600381526020017f4e2f410000000000000000000000000000000000000000000000000000000000815250611915565b86600201858154811061187a57611879612e96565b5b906000526020600020906004020160000180546118969061288c565b80601f01602080910402602001604051908101604052809291908181526020018280546118c29061288c565b801561190f5780601f106118e45761010080835404028352916020019161190f565b820191906000526020600020905b8154815290600101906020018083116118f257829003601f168201915b50505050505b815260200185815260200183815250908060018154018082558091505060019003906000526020600020906005020160009091909190915060008201518160000155602082015181600101908161196c9190612dc4565b5060408201518160020190816119829190612dc4565b50606082015181600301556080820151816004015550505050505050565b6000604051905090565b600080fd5b600080fd5b600073ffffffffffffffffffffffffffffffffffffffff82169050919050565b60006119df826119b4565b9050919050565b6119ef816119d4565b81146119fa57600080fd5b50565b600081359050611a0c816119e6565b92915050565b600060208284031215611a2857611a276119aa565b5b6000611a36848285016119fd565b91505092915050565b60008115159050919050565b611a5481611a3f565b82525050565b6000602082019050611a6f6000830184611a4b565b92915050565b6000819050919050565b611a8881611a75565b8114611a9357600080fd5b50565b600081359050611aa581611a7f565b92915050565b600080fd5b60006101a08284031215611ac757611ac6611aab565b5b81905092915050565b60008060006101e08486031215611aea57611ae96119aa565b5b6000611af886828701611a96565b9350506020611b0986828701611a96565b9250506040611b1a86828701611ab0565b9150509250925092565b600060208284031215611b3a57611b396119aa565b5b6000611b4884828501611a96565b91505092915050565b600081519050919050565b600082825260208201905092915050565b6000819050602082019050919050565b600081519050919050565b600082825260208201905092915050565b60005b83811015611bb7578082015181840152602081019050611b9c565b60008484015250505050565b6000601f19601f8301169050919050565b6000611bdf82611b7d565b611be98185611b88565b9350611bf9818560208601611b99565b611c0281611bc3565b840191505092915050565b60006080830160008301518482036000860152611c2a8282611bd4565b91505060208301518482036020860152611c448282611bd4565b91505060408301518482036040860152611c5e8282611bd4565b91505060608301518482036060860152611c788282611bd4565b9150508091505092915050565b6000611c918383611c0d565b905092915050565b6000602082019050919050565b6000611cb182611b51565b611cbb8185611b5c565b935083602082028501611ccd85611b6d565b8060005b85811015611d095784840389528151611cea8582611c85565b9450611cf583611c99565b925060208a01995050600181019050611cd1565b50829750879550505050505092915050565b60006020820190508181036000830152611d358184611ca6565b905092915050565b611d4681611a75565b82525050565b600082825260208201905092915050565b6000611d6882611b7d565b611d728185611d4c565b9350611d82818560208601611b99565b611d8b81611bc3565b840191505092915050565b7f4e487b7100000000000000000000000000000000000000000000000000000000600052602160045260246000fd5b60038110611dd657611dd5611d96565b5b50565b6000819050611de782611dc5565b919050565b6000611df782611dd9565b9050919050565b611e0781611dec565b82525050565b600060a082019050611e226000830188611d3d565b8181036020830152611e348187611d5d565b9050611e436040830186611dfe565b611e506060830185611d3d565b611e5d6080830184611d3d565b9695505050505050565b6000819050919050565b6000611e8c611e87611e82846119b4565b611e67565b6119b4565b9050919050565b6000611e9e82611e71565b9050919050565b6000611eb082611e93565b9050919050565b611ec081611ea5565b82525050565b6000602082019050611edb6000830184611eb7565b92915050565b600080fd5b600080fd5b7f4e487b7100000000000000000000000000000000000000000000000000000000600052604160045260246000fd5b611f2382611bc3565b810181811067ffffffffffffffff82111715611f4257611f41611eeb565b5b80604052505050565b6000611f556119a0565b9050611f618282611f1a565b919050565b600067ffffffffffffffff821115611f8157611f80611eeb565b5b611f8a82611bc3565b9050602081019050919050565b82818337600083830152505050565b6000611fb9611fb484611f66565b611f4b565b905082815260208101848484011115611fd557611fd4611ee6565b5b611fe0848285611f97565b509392505050565b600082601f830112611ffd57611ffc611ee1565b5b813561200d848260208601611fa6565b91505092915050565b600067ffffffffffffffff82111561203157612030611eeb565b5b602082029050602081019050919050565b600080fd5b600061205a61205584612016565b611f4b565b9050808382526020820190506020840283018581111561207d5761207c612042565b5b835b818110156120c457803567ffffffffffffffff8111156120a2576120a1611ee1565b5b8086016120af8982611fe8565b8552602085019450505060208101905061207f565b5050509392505050565b600082601f8301126120e3576120e2611ee1565b5b81356120f3848260208601612047565b91505092915050565b600080600080600080600060e0888a03121561211b5761211a6119aa565b5b600088013567ffffffffffffffff811115612139576121386119af565b5b6121458a828b01611fe8565b975050602088013567ffffffffffffffff811115612166576121656119af565b5b6121728a828b016120ce565b965050604088013567ffffffffffffffff811115612193576121926119af565b5b61219f8a828b016120ce565b955050606088013567ffffffffffffffff8111156121c0576121bf6119af565b5b6121cc8a828b016120ce565b945050608088013567ffffffffffffffff8111156121ed576121ec6119af565b5b6121f98a828b016120ce565b93505060a061220a8a828b01611a96565b92505060c061221b8a828b01611a96565b91505092959891949750929550565b612233816119d4565b82525050565b600060208201905061224e600083018461222a565b92915050565b600060a0820190506122696000830188611d3d565b818103602083015261227b8187611d5d565b9050818103604083015261228f8186611d5d565b905061229e6060830185611d3d565b6122ab6080830184611d3d565b9695505050505050565b600080604083850312156122cc576122cb6119aa565b5b60006122da85828601611a96565b92505060206122eb85828601611a96565b9150509250929050565b600060208201905061230a6000830184611d3d565b92915050565b600081519050919050565b600082825260208201905092915050565b6000819050602082019050919050565b61234581611a75565b82525050565b600060a083016000830151612363600086018261233c565b506020830151848203602086015261237b8282611bd4565b915050604083015184820360408601526123958282611bd4565b91505060608301516123aa606086018261233c565b5060808301516123bd608086018261233c565b508091505092915050565b60006123d4838361234b565b905092915050565b6000602082019050919050565b60006123f482612310565b6123fe818561231b565b9350836020820285016124108561232c565b8060005b8581101561244c578484038952815161242d85826123c8565b9450612438836123dc565b925060208a01995050600181019050612414565b50829750879550505050505092915050565b6000602082019050818103600083015261247881846123e9565b905092915050565b7f456c656374696f6e206973206e6f742061637469766500000000000000000000600082015250565b60006124b6601683611d4c565b91506124c182612480565b602082019050919050565b600060208201905081810360008301526124e5816124a9565b9050919050565b7f4f75747369646520766f74696e672077696e646f770000000000000000000000600082015250565b6000612522601583611d4c565b915061252d826124ec565b602082019050919050565b6000602082019050818103600083015261255181612515565b9050919050565b7f496e76616c69642063616e64696461746520696e646578000000000000000000600082015250565b600061258e601783611d4c565b915061259982612558565b602082019050919050565b600060208201905081810360008301526125bd81612581565b9050919050565b7f50726f6f662073636f7065206d757374206d6174636820656c656374696f6e2060008201527f4944000000000000000000000000000000000000000000000000000000000000602082015250565b6000612620602283611d4c565b915061262b826125c4565b604082019050919050565b6000602082019050818103600083015261264f81612613565b9050919050565b7f50726f6f66206d657373616765206d757374206d617463682063616e6469646160008201527f746520696e646578000000000000000000000000000000000000000000000000602082015250565b60006126b2602883611d4c565b91506126bd82612656565b604082019050919050565b600060208201905081810360008301526126e1816126a5565b9050919050565b60006126f76020840184611a96565b905092915050565b600082905092915050565b82818337505050565b612720610100838361270a565b5050565b6101a0820161273660008301836126e8565b612743600085018261233c565b5061275160208301836126e8565b61275e602085018261233c565b5061276c60408301836126e8565b612779604085018261233c565b5061278760608301836126e8565b612794606085018261233c565b506127a260808301836126e8565b6127af608085018261233c565b506127bd60a08301836126ff565b6127ca60a0850182612713565b50505050565b60006101c0820190506127e66000830185611d3d565b6127f36020830184612724565b9392505050565b7f4e487b7100000000000000000000000000000000000000000000000000000000600052601160045260246000fd5b600061283482611a75565b915061283f83611a75565b9250828201905080821115612857576128566127fa565b5b92915050565b7f4e487b7100000000000000000000000000000000000000000000000000000000600052602260045260246000fd5b600060028204905060018216806128a457607f821691505b6020821081036128b7576128b661285d565b5b50919050565b7f4e6f742077686974656c69737465642062792041646d696e0000000000000000600082015250565b60006128f3601883611d4c565b91506128fe826128bd565b602082019050919050565b60006020820190508181036000830152612922816128e6565b9050919050565b7f416c7265616479207265676973746572656420616e206964656e746974790000600082015250565b600061295f601e83611d4c565b915061296a82612929565b602082019050919050565b6000602082019050818103600083015261298e81612952565b9050919050565b60006040820190506129aa6000830185611d3d565b6129b76020830184611d3d565b9392505050565b7f4f6e6c79206f776e65722063616e2063726561746520656c656374696f6e7300600082015250565b60006129f4601f83611d4c565b91506129ff826129be565b602082019050919050565b60006020820190508181036000830152612a23816129e7565b9050919050565b7f4d69736d617463683a2063616e646964617465732f6c6f676f73000000000000600082015250565b6000612a60601a83611d4c565b9150612a6b82612a2a565b602082019050919050565b60006020820190508181036000830152612a8f81612a53565b9050919050565b7f4d69736d617463683a2063616e646964617465732f6d616e69666573746f7300600082015250565b6000612acc601f83611d4c565b9150612ad782612a96565b602082019050919050565b60006020820190508181036000830152612afb81612abf565b9050919050565b7f4d69736d617463683a2063616e646964617465732f766964656f730000000000600082015250565b6000612b38601b83611d4c565b9150612b4382612b02565b602082019050919050565b60006020820190508181036000830152612b6781612b2b565b9050919050565b7f496e76616c69642074696d652072616e67650000000000000000000000000000600082015250565b6000612ba4601283611d4c565b9150612baf82612b6e565b602082019050919050565b60006020820190508181036000830152612bd381612b97565b9050919050565b6000612be582611a75565b91507fffffffffffffffffffffffffffffffffffffffffffffffffffffffffffffffff8203612c1757612c166127fa565b5b600182019050919050565b60008190508160005260206000209050919050565b60006020601f8301049050919050565b600082821b905092915050565b600060088302612c847fffffffffffffffffffffffffffffffffffffffffffffffffffffffffffffffff82612c47565b612c8e8683612c47565b95508019841693508086168417925050509392505050565b6000612cc1612cbc612cb784611a75565b611e67565b611a75565b9050919050565b6000819050919050565b612cdb83612ca6565b612cef612ce782612cc8565b848454612c54565b825550505050565b600090565b612d04612cf7565b612d0f818484612cd2565b505050565b5b81811015612d3357612d28600082612cfc565b600181019050612d15565b5050565b601f821115612d7857612d4981612c22565b612d5284612c37565b81016020851015612d61578190505b612d75612d6d85612c37565b830182612d14565b50505b505050565b600082821c905092915050565b6000612d9b60001984600802612d7d565b1980831691505092915050565b6000612db48383612d8a565b9150826002028217905092915050565b612dcd82611b7d565b67ffffffffffffffff811115612de657612de5611eeb565b5b612df0825461288c565b612dfb828285612d37565b600060209050601f831160018114612e2e5760008415612e1c578287015190505b612e268582612da8565b865550612e8e565b601f198416612e3c86612c22565b60005b82811015612e6457848901518255600182019150602085019450602081019050612e3f565b86831015612e815784890151612e7d601f891682612d8a565b8355505b6001600288020188555050505b505050505050565b7f4e487b7100000000000000000000000000000000000000000000000000000000600052603260045260246000fd5b60006020820190508181036000830152612edf8184611d5d565b905092915050565b6000602082019050612efc6000830184611dfe565b92915050565b7f4f6e6c79206f776e65722063616e207465726d696e6174650000000000000000600082015250565b6000612f38601883611d4c565b9150612f4382612f02565b602082019050919050565b60006020820190508181036000830152612f6781612f2b565b9050919050565b7f496e76616c696420656c656374696f6e20494400000000000000000000000000600082015250565b6000612fa4601383611d4c565b9150612faf82612f6e565b602082019050919050565b60006020820190508181036000830152612fd381612f97565b9050919050565b7f456c656374696f6e206e6f74206f6e676f696e67000000000000000000000000600082015250565b6000613010601483611d4c565b915061301b82612fda565b602082019050919050565b6000602082019050818103600083015261303f81613003565b9050919050565b7f4f6e6c79206f776e65722063616e2077686974656c6973740000000000000000600082015250565b600061307c601883611d4c565b915061308782613046565b602082019050919050565b600060208201905081810360008301526130ab8161306f565b905091905056fea2646970667358221220b2429ad6d309ae02c0c2cdd66a952db19eaeba6367cd117caf6e42449ca46a1164736f6c63430008140033",
  "linkReferences": {},
  "deployedLinkReferences": {}
}