{
  "_format": "hh-sol-artifact-1",
  "contractName": "SecureVote",
  "sourceName": "contracts/SecureVote.sol",
  "abi": [
    {
      "inputs": [
        {
          "internalType": "address",
          "name": "_semaphoreAddress",
          "type": "address"
        }
      ],
      "stateMutability": "nonpayable",
      "type": "constructor"
    },
    {
      "anonymous": false,
      "inputs": [
        {
          "indexed": true,
          "internalType": "uint256",
          "name": "electionId",
          "type": "uint256"
        },
        {
          "indexed": false,
          "internalType": "string",
          "name": "title",
          "type": "string"
        }
      ],
      "name": "ElectionCreated",
      "type": "event"
    },
    {
      "anonymous": false,
      "inputs": [
        {
          "indexed": true,
          "internalType": "uint256",
          "name": "electionId",
          "type": "uint256"
        },
        {
          "indexed": false,
          "internalType": "enum SecureVote.ElectionType",
          "name": "electionType",
          "type": "uint8"
        },
        {
          "indexed": false,
          "internalType": "string",
          "name": "district",
          "type": "string"
        },
        {
          "indexed": false,
          "internalType": "string",
          "name": "localBody",
          "type": "string"
        },
        {
          "indexed": false,
          "internalType": "string",
          "name": "wardNumber",
          "type": "string"
        }
      ],
      "name": "ElectionMetadataStored",
      "type": "event"
    },
    {
      "anonymous": false,
      "inputs": [
        {
          "indexed": true,
          "internalType": "uint256",
          "name": "electionId",
          "type": "uint256"
        },
        {
          "indexed": false,
          "internalType": "enum SecureVote.ElectionState",
          "name": "newState",
          "type": "uint8"
        }
      ],
      "name": "ElectionStateChanged",
      "type": "event"
    },
    {
      "anonymous": false,
      "inputs": [
        {
          "indexed": true,
          "internalType": "address",
          "name": "voter",
          "type": "address"
        },
        {
          "indexed": true,
          "internalType": "uint256",
          "name": "electionId",
          "type": "uint256"
        },
        {
          "indexed": true,
          "internalType": "uint256",
          "name": "candidateIndex",
          "type": "uint256"
        }
      ],
      "name": "Voted",
      "type": "event"
    },
    {
      "anonymous": false,
      "inputs": [
        {
          "indexed": true,
          "internalType": "address",
          "name": "user",
          "type": "address"
        },
        {
          "indexed": false,
          "internalType": "string",
          "name": "district",
          "type": "string"
        },
        {
          "indexed": false,
          "internalType": "string",
          "name": "localBody",
          "type": "string"
        },
        {
          "indexed": false,
          "internalType": "string",
          "name": "wardNumber",
          "type": "string"
        }
      ],
      "name": "VoterProfileUpdated",
      "type": "event"
    },
    {
      "anonymous": false,
      "inputs": [
        {
          "indexed": true,
          "internalType": "address",
          "name": "user",
          "type": "address"
        }
      ],
      "name": "Whitelisted",
      "type": "event"
    },
    {
      "inputs": [
        {
          "internalType": "address",
          "name": "_user",
          "type": "address"
        }
      ],
      "name": "addToWhitelist",
      "outputs": [],
      "stateMutability": "nonpayable",
      "type": "function"
    },
    {
      "inputs": [
        {
          "internalType": "address",
          "name": "_user",
          "type": "address"
        },
        {
          "internalType": "string",
          "name": "_district",
          "type": "string"
        },
        {
          "internalType": "string",
          "name": "_localBody",
          "type": "string"
        },
        {
          "internalType": "string",
          "name": "_wardNumber",
          "type": "string"
        }
      ],
      "name": "approveVoter",
      "outputs": [],
      "stateMutability": "nonpayable",
      "type": "function"
    },
    {
      "inputs": [
        {
          "internalType": "address",
          "name": "_user",
          "type": "address"
        },
        {
          "internalType": "uint256",
          "name": "_electionId",
          "type": "uint256"
        }
      ],
      "name": "canVoteInElection",
      "outputs": [
        {
          "internalType": "bool",
          "name": "",
          "type": "bool"
        }
      ],
      "stateMutability": "view",
      "type": "function"
    },
    {
      "inputs": [
        {
          "internalType": "string",
          "name": "_title",
          "type": "string"
        },
        {
          "internalType": "string[]",
          "name": "_candidates",
          "type": "string[]"
        },
        {
          "internalType": "string[]",
          "name": "_logoUrls",
          "type": "string[]"
        },
        {
          "internalType": "string[]",
          "name": "_manifestos",
          "type": "string[]"
        },
        {
          "internalType": "string[]",
          "name": "_videos",
          "type": "string[]"
        },
        {
          "internalType": "uint256",
          "name": "_startTime",
          "type": "uint256"
        },
        {
          "internalType": "uint256",
          "name": "_endTime",
          "type": "uint256"
        }
      ],
      "name": "createElection",
      "outputs": [],
      "stateMutability": "nonpayable",
      "type": "function"
    },
    {
      "inputs": [
        {
          "internalType": "string",
          "name": "_title",
          "type": "string"
        },
        {
          "internalType": "string[]",
          "name": "_candidates",
          "type": "string[]"
        },
        {
          "internalType": "string[]",
          "name": "_logoUrls",
          "type": "string[]"
        },
        {
          "internalType": "string[]",
          "name": "_manifestos",
          "type": "string[]"
        },
        {
          "internalType": "string[]",
          "name": "_videos",
          "type": "string[]"
        },
        {
          "internalType": "uint256",
          "name": "_startTime",
          "type": "uint256"
        },
        {
          "internalType": "uint256",
          "name": "_endTime",
          "type": "uint256"
        },
        {
          "internalType": "uint8",
          "name": "_electionType",
          "type": "uint8"
        },
        {
          "internalType": "string",
          "name": "_district",
          "type": "string"
        },
        {
          "internalType": "string",
          "name": "_localBody",
          "type": "string"
        },
        {
          "internalType": "string",
          "name": "_wardNumber",
          "type": "string"
        }
      ],
      "name": "createElectionWithMetadata",
      "outputs": [],
      "stateMutability": "nonpayable",
      "type": "function"
    },
    {
      "inputs": [],
      "name": "electionCount",
      "outputs": [
        {
          "internalType": "uint256",
          "name": "",
          "type": "uint256"
        }
      ],
      "stateMutability": "view",
      "type": "function"
    },
    {
      "inputs": [
        {
          "internalType": "uint256",
          "name": "",
          "type": "uint256"
        }
      ],
      "name": "elections",
      "outputs": [
        {
          "internalType": "uint256",
          "name": "id",
          "type": "uint256"
        },
        {
          "internalType": "string",
          "name": "title",
          "type": "string"
        },
        {
          "internalType": "enum SecureVote.ElectionState",
          "name": "state",
          "type": "uint8"
        },
        {
          "internalType": "uint256",
          "name": "startTime",
          "type": "uint256"
        },
        {
          "internalType": "uint256",
          "name": "endTime",
          "type": "uint256"
        }
      ],
      "stateMutability": "view",
      "type": "function"
    },
    {
      "inputs": [
        {
          "internalType": "uint256",
          "name": "_electionId",
          "type": "uint256"
        }
      ],
      "name": "getElectionCandidates",
      "outputs": [
        {
          "components": [
            {
              "internalType": "string",
              "name": "name",
              "type": "string"
            },
            {
              "internalType": "string",
              "name": "logoUrl",
              "type": "string"
            },
            {
              "internalType": "string",
              "name": "manifestoHash",
              "type": "string"
            },
            {
              "internalType": "string",
              "name": "videoHash",
              "type": "string"
            }
          ],
          "internalType": "struct SecureVote.Candidate[]",
          "name": "",
          "type": "tuple[]"
        }
      ],
      "stateMutability": "view",
      "type": "function"
    },
    {
      "inputs": [
        {
          "internalType": "uint256",
          "name": "_electionId",
          "type": "uint256"
        }
      ],
      "name": "getElectionMetadata",
      "outputs": [
        {
          "internalType": "uint8",
          "name": "",
          "type": "uint8"
        },
        {
          "internalType": "string",
          "name": "",
          "type": "string"
        },
        {
          "internalType": "string",
          "name": "",
          "type": "string"
        },
        {
          "internalType": "string",
          "name": "",
          "type": "string"
        }
      ],
      "stateMutability": "view",
      "type": "function"
    },
    {
      "inputs": [],
      "name": "getPastElections",
      "outputs": [
        {
          "components": [
            {
              "internalType": "uint256",
              "name": "id",
              "type": "uint256"
            },
            {
              "internalType": "string",
              "name": "title",
              "type": "string"
            },
            {
              "internalType": "string",
              "name": "winnerName",
              "type": "string"
            },
            {
              "internalType": "uint256",
              "name": "winnerVotes",
              "type": "uint256"
            },
            {
              "internalType": "uint256",
              "name": "totalVotes",
              "type": "uint256"
            }
          ],
          "internalType": "struct SecureVote.PastElection[]",
          "name": "",
          "type": "tuple[]"
        }
      ],
      "stateMutability": "view",
      "type": "function"
    },
    {
      "inputs": [
        {
          "internalType": "address",
          "name": "_user",
          "type": "address"
        }
      ],
      "name": "getVoterProfile",
      "outputs": [
        {
          "internalType": "bool",
          "name": "",
          "type": "bool"
        },
        {
          "internalType": "string",
          "name": "",
          "type": "string"
        },
        {
          "internalType": "string",
          "name": "",
          "type": "string"
        },
        {
          "internalType": "string",
          "name": "",
          "type": "string"
        }
      ],
      "stateMutability": "view",
      "type": "function"
    },
    {
      "inputs": [
        {
          "internalType": "uint256",
          "name": "_electionId",
          "type": "uint256"
        },
        {
          "internalType": "uint256",
          "name": "_candidateIndex",
          "type": "uint256"
        }
      ],
      "name": "getVotes",
      "outputs": [
        {
          "internalType": "uint256",
          "name": "",
          "type": "uint256"
        }
      ],
      "stateMutability": "view",
      "type": "function"
    },
    {
      "inputs": [],
      "name": "groupId",
      "outputs": [
        {
          "internalType": "uint256",
          "name": "",
          "type": "uint256"
        }
      ],
      "stateMutability": "view",
      "type": "function"
    },
    {
      "inputs": [
        {
          "internalType": "address",
          "name": "",
          "type": "address"
        }
      ],
      "name": "hasRegisteredIdentity",
      "outputs": [
        {
          "internalType": "bool",
          "name": "",
          "type": "bool"
        }
      ],
      "stateMutability": "view",
      "type": "function"
    },
    {
      "inputs": [
        {
          "internalType": "address",
          "name": "_user",
          "type": "address"
        }
      ],
      "name": "isWhitelisted",
      "outputs": [
        {
          "internalType": "bool",
          "name": "",
          "type": "bool"
        }
      ],
      "stateMutability": "view",
      "type": "function"
    },
    {
      "inputs": [],
      "name": "owner",
      "outputs": [
        {
          "internalType": "address",
          "name": "",
          "type": "address"
        }
      ],
      "stateMutability": "view",
      "type": "function"
    },
    {
      "inputs": [
        {
          "internalType": "uint256",
          "name": "",
          "type": "uint256"
        }
      ],
      "name": "pastElections",
      "outputs": [
        {
          "internalType": "uint256",
          "name": "id",
          "type": "uint256"
        },
        {
          "internalType": "string",
          "name": "title",
          "type": "string"
        },
        {
          "internalType": "string",
          "name": "winnerName",
          "type": "string"
        },
        {
          "internalType": "uint256",
          "name": "winnerVotes",
          "type": "uint256"
        },
        {
          "internalType": "uint256",
          "name": "totalVotes",
          "type": "uint256"
        }
      ],
      "stateMutability": "view",
      "type": "function"
    },
    {
      "inputs": [
        {
          "internalType": "uint256",
          "name": "identityCommitment",
          "type": "uint256"
        }
      ],
      "name": "registerIdentity",
      "outputs": [],
      "stateMutability": "nonpayable",
      "type": "function"
    },
    {
      "inputs": [],
      "name": "semaphore",
      "outputs": [
        {
          "internalType": "contract ISemaphore",
          "name": "",
          "type": "address"
        }
      ],
      "stateMutability": "view",
      "type": "function"
    },
    {
      "inputs": [
        {
          "internalType": "address",
          "name": "_user",
          "type": "address"
        },
        {
          "internalType": "string",
          "name": "_district",
          "type": "string"
        },
        {
          "internalType": "string",
          "name": "_localBody",
          "type": "string"
        },
        {
          "internalType": "string",
          "name": "_wardNumber",
          "type": "string"
        }
      ],
      "name": "setVoterProfile",
      "outputs": [],
      "stateMutability": "nonpayable",
      "type": "function"
    },
    {
      "inputs": [
        {
          "internalType": "uint256",
          "name": "_electionId",
          "type": "uint256"
        }
      ],
      "name": "terminateElection",
      "outputs": [],
      "stateMutability": "nonpayable",
      "type": "function"
    },
    {
      "inputs": [
        {
          "internalType": "uint256",
          "name": "_electionId",
          "type": "uint256"
        },
        {
          "internalType": "uint256",
          "name": "_candidateIndex",
          "type": "uint256"
        },
        {
          "components": [
            {
              "internalType": "uint256",
              "name": "merkleTreeDepth",
              "type": "uint256"
            },
            {
              "internalType": "uint256",
              "name": "merkleTreeRoot",
              "type": "uint256"
            },
            {
              "internalType": "uint256",
              "name": "nullifier",
              "type": "uint256"
            },
            {
              "internalType": "uint256",
              "name": "message",
              "type": "uint256"
            },
            {
              "internalType": "uint256",
              "name": "scope",
              "type": "uint256"
            },
            {
              "internalType": "uint256[8]",
              "name": "points",
              "type": "uint256[8]"
            }
          ],
          "internalType": "struct ISemaphore.SemaphoreProof",
          "name": "proof",
          "type": "tuple"
        }
      ],
      "name": "vote",
      "outputs": [],
      "stateMutability": "nonpayable",
      "type": "function"
    },
    {
      "inputs": [
        {
          "internalType": "address",
          "name": "",
          "type": "address"
        }
      ],
      "name": "whitelist",
      "outputs": [
        {
          "internalType": "bool",
          "name": "",
          "type": "bool"
        }
      ],
      "stateMutability": "view",
      "type": "function"
    }
  ],
  "bytecode": "0x60806040523480156200001157600080fd5b5060405162004a2b38038062004a2b8339818101604052810190620000379190620001d2565b336000806101000a81548173ffffffffffffffffffffffffffffffffffffffff021916908373ffffffffffffffffffffffffffffffffffffffff16021790555080600160006101000a81548173ffffffffffffffffffffffffffffffffffffffff021916908373ffffffffffffffffffffffffffffffffffffffff160217905550600160009054906101000a900473ffffffffffffffffffffffffffffffffffffffff1673ffffffffffffffffffffffffffffffffffffffff16635c3f3b60306040518263ffffffff1660e01b815260040162000115919062000215565b6020604051808303816000875af115801562000135573d6000803e3d6000fd5b505050506040513d601f19601f820116820180604052508101906200015b91906200026d565b600281905550506200029f565b600080fd5b600073ffffffffffffffffffffffffffffffffffffffff82169050919050565b60006200019a826200016d565b9050919050565b620001ac816200018d565b8114620001b857600080fd5b50565b600081519050620001cc81620001a1565b92915050565b600060208284031215620001eb57620001ea62000168565b5b6000620001fb84828501620001bb565b91505092915050565b6200020f816200018d565b82525050565b60006020820190506200022c600083018462000204565b92915050565b6000819050919050565b620002478162000232565b81146200025357600080fd5b50565b60008151905062000267816200023c565b92915050565b60006020828403121562000286576200028562000168565b5b6000620002968482850162000256565b91505092915050565b61477c80620002af6000396000f3fe608060405234801561001057600080fd5b506004361061014d5760003560e01c80638fd73d11116100c3578063ae2fa4181161007c578063ae2fa418146103ca578063d1f1956c146103e6578063d8a6f68f14610404578063e43252d714610437578063ee075a6214610453578063f346d6c0146104865761014d565b80638fd73d11146102de57806391f3663314610312578063997d2830146103425780639b19251a146103605780639db136a114610390578063a0f44c92146103ac5761014d565b80635e12845e116101155780635e12845e146102065780635e6fef01146102365780636fd712071461026a5780637b5d2534146102865780638adc2e10146102a45780638da5cb5b146102c05761014d565b80631655b9031461015257806335721d22146101825780633af32abf1461019e5780633bc555b5146101ce578063453cfe68146101ea575b600080fd5b61016c600480360381019061016791906128bb565b6104b6565b6040516101799190612916565b60405180910390f35b61019c60048036038101906101979190612a77565b6106a3565b005b6101b860048036038101906101b39190612b32565b6108ec565b6040516101c59190612916565b60405180910390f35b6101e860048036038101906101e39190612a77565b610942565b005b61020460048036038101906101ff9190612b84565b610af0565b005b610220600480360381019061021b9190612bd8565b610e0c565b60405161022d9190612dbe565b60405180910390f35b610250600480360381019061024b9190612bd8565b6110c9565b604051610261959493929190612eb0565b60405180910390f35b610284600480360381019061027f9190612bd8565b611194565b005b61028e611399565b60405161029b9190612f69565b60405180910390f35b6102be60048036038101906102b9919061306a565b6113bf565b005b6102c8611409565b6040516102d591906131a7565b60405180910390f35b6102f860048036038101906102f39190612bd8565b61142d565b6040516103099594939291906131c2565b60405180910390f35b61032c60048036038101906103279190613223565b611583565b6040516103399190613263565b60405180910390f35b61034a6115b2565b6040516103579190613263565b60405180910390f35b61037a60048036038101906103759190612b32565b6115b8565b6040516103879190612916565b60405180910390f35b6103aa60048036038101906103a591906132b7565b6115d8565b005b6103b4611668565b6040516103c19190613263565b60405180910390f35b6103e460048036038101906103df9190612bd8565b61166e565b005b6103ee61185b565b6040516103fb91906135d9565b60405180910390f35b61041e60048036038101906104199190612b32565b6119fc565b60405161042e94939291906135fb565b60405180910390f35b610451600480360381019061044c9190612b32565b611c18565b005b61046d60048036038101906104689190612bd8565b611d44565b60405161047d9493929190613664565b60405180910390f35b6104a0600480360381019061049b9190612b32565b611f46565b6040516104ad9190612916565b60405180910390f35b6000600360008473ffffffffffffffffffffffffffffffffffffffff1673ffffffffffffffffffffffffffffffffffffffff16815260200190815260200160002060009054906101000a900460ff16610512576000905061069d565b60006006600084815260200190815260200160002090508060040160009054906101000a900460ff16158061057c57506000600181111561055657610555612e39565b5b8160000160009054906101000a900460ff16600181111561057a57610579612e39565b5b145b1561058b57600191505061069d565b6000600760008673ffffffffffffffffffffffffffffffffffffffff1673ffffffffffffffffffffffffffffffffffffffff16815260200190815260200160002090508060000160009054906101000a900460ff166105ef5760009250505061069d565b8160010160405161060091906137c1565b60405180910390208160010160405161061991906137c1565b604051809103902014801561065d57508160020160405161063a91906137c1565b60405180910390208160020160405161065391906137c1565b6040518091039020145b801561069857508160030160405161067591906137c1565b60405180910390208160030160405161068e91906137c1565b6040518091039020145b925050505b92915050565b60008054906101000a900473ffffffffffffffffffffffffffffffffffffffff1673ffffffffffffffffffffffffffffffffffffffff163373ffffffffffffffffffffffffffffffffffffffff1614610731576040517f08c379a000000000000000000000000000000000000000000000000000000000815260040161072890613824565b60405180910390fd5b6001600360008673ffffffffffffffffffffffffffffffffffffffff1673ffffffffffffffffffffffffffffffffffffffff16815260200190815260200160002060006101000a81548160ff021916908315150217905550604051806080016040528060011515815260200184815260200183815260200182815250600760008673ffffffffffffffffffffffffffffffffffffffff1673ffffffffffffffffffffffffffffffffffffffff16815260200190815260200160002060008201518160000160006101000a81548160ff021916908315150217905550602082015181600101908161082191906139e6565b50604082015181600201908161083791906139e6565b50606082015181600301908161084d91906139e6565b509050508373ffffffffffffffffffffffffffffffffffffffff167faab7954e9d246b167ef88aeddad35209ca2489d95a8aeb59e288d9b19fae5a5460405160405180910390a28373ffffffffffffffffffffffffffffffffffffffff167f483c5314bc3656c67ddd7de817a96167412298b6ff1a20988a2a31b48d889a488484846040516108de93929190613ab8565b60405180910390a250505050565b6000600360008373ffffffffffffffffffffffffffffffffffffffff1673ffffffffffffffffffffffffffffffffffffffff16815260200190815260200160002060009054906101000a900460ff169050919050565b60008054906101000a900473ffffffffffffffffffffffffffffffffffffffff1673ffffffffffffffffffffffffffffffffffffffff163373ffffffffffffffffffffffffffffffffffffffff16146109d0576040517f08c379a00000000000000000000000000000000000000000000000000000000081526004016109c790613b50565b60405180910390fd5b604051806080016040528060011515815260200184815260200183815260200182815250600760008673ffffffffffffffffffffffffffffffffffffffff1673ffffffffffffffffffffffffffffffffffffffff16815260200190815260200160002060008201518160000160006101000a81548160ff0219169083151502179055506020820151816001019081610a6891906139e6565b506040820151816002019081610a7e91906139e6565b506060820151816003019081610a9491906139e6565b509050508373ffffffffffffffffffffffffffffffffffffffff167f483c5314bc3656c67ddd7de817a96167412298b6ff1a20988a2a31b48d889a48848484604051610ae293929190613ab8565b60405180910390a250505050565b600060056000858152602001908152602001600020905060016002811115610b1b57610b1a612e39565b5b8160030160009054906101000a900460ff166002811115610b3f57610b3e612e39565b5b14610b7f576040517f08c379a0000000000000000000000000000000000000000000000000000000008152600401610b7690613bbc565b60405180910390fd5b80600401544210158015610b97575080600501544211155b610bd6576040517f08c379a0000000000000000000000000000000000000000000000000000000008152600401610bcd90613c28565b60405180910390fd5b80600201805490508310610c1f576040517f08c379a0000000000000000000000000000000000000000000000000000000008152600401610c1690613c94565b60405180910390fd5b610c2933856104b6565b610c68576040517f08c379a0000000000000000000000000000000000000000000000000000000008152600401610c5f90613d26565b60405180910390fd5b83826080013514610cae576040517f08c379a0000000000000000000000000000000000000000000000000000000008152600401610ca590613db8565b60405180910390fd5b82826060013514610cf4576040517f08c379a0000000000000000000000000000000000000000000000000000000008152600401610ceb90613e4a565b60405180910390fd5b600160009054906101000a900473ffffffffffffffffffffffffffffffffffffffff1673ffffffffffffffffffffffffffffffffffffffff1663d0d898dd600254846040518363ffffffff1660e01b8152600401610d53929190613f52565b600060405180830381600087803b158015610d6d57600080fd5b505af1158015610d81573d6000803e3d6000fd5b5050505060016008600086815260200190815260200160002060008581526020019081526020016000206000828254610dba9190613fab565b9250508190555082843373ffffffffffffffffffffffffffffffffffffffff167fea66f58e474bc09f580000e81f31b334d171db387d0c6098ba47bd897741679b60405160405180910390a450505050565b606060056000838152602001908152602001600020600201805480602002602001604051908101604052809291908181526020016000905b828210156110be5783829060005260206000209060040201604051806080016040529081600082018054610e77906136ed565b80601f0160208091040260200160405190810160405280929190818152602001828054610ea3906136ed565b8015610ef05780601f10610ec557610100808354040283529160200191610ef0565b820191906000526020600020905b815481529060010190602001808311610ed357829003601f168201915b50505050508152602001600182018054610f09906136ed565b80601f0160208091040260200160405190810160405280929190818152602001828054610f35906136ed565b8015610f825780601f10610f5757610100808354040283529160200191610f82565b820191906000526020600020905b815481529060010190602001808311610f6557829003601f168201915b50505050508152602001600282018054610f9b906136ed565b80601f0160208091040260200160405190810160405280929190818152602001828054610fc7906136ed565b80156110145780601f10610fe957610100808354040283529160200191611014565b820191906000526020600020905b815481529060010190602001808311610ff757829003601f168201915b5050505050815260200160038201805461102d906136ed565b80601f0160208091040260200160405190810160405280929190818152602001828054611059906136ed565b80156110a65780601f1061107b576101008083540402835291602001916110a6565b820191906000526020600020905b81548152906001019060200180831161108957829003601f168201915b50505050508152505081526020019060010190610e44565b505050509050919050565b60056020528060005260406000206000915090508060000154908060010180546110f2906136ed565b80601f016020809104026020016040519081016040528092919081815260200182805461111e906136ed565b801561116b5780601f106111405761010080835404028352916020019161116b565b820191906000526020600020905b81548152906001019060200180831161114e57829003601f168201915b5050505050908060030160009054906101000a900460ff16908060040154908060050154905085565b600360003373ffffffffffffffffffffffffffffffffffffffff1673ffffffffffffffffffffffffffffffffffffffff16815260200190815260200160002060009054906101000a900460ff16611220576040517f08c379a00000000000000000000000000000000000000000000000000000000081526004016112179061402b565b60405180910390fd5b600460003373ffffffffffffffffffffffffffffffffffffffff1673ffffffffffffffffffffffffffffffffffffffff16815260200190815260200160002060009054906101000a900460ff16156112ad576040517f08c379a00000000000000000000000000000000000000000000000000000000081526004016112a490614097565b60405180910390fd5b6001600460003373ffffffffffffffffffffffffffffffffffffffff1673ffffffffffffffffffffffffffffffffffffffff16815260200190815260200160002060006101000a81548160ff021916908315150217905550600160009054906101000a900473ffffffffffffffffffffffffffffffffffffffff1673ffffffffffffffffffffffffffffffffffffffff16631783efc3600254836040518363ffffffff1660e01b81526004016113649291906140b7565b600060405180830381600087803b15801561137e57600080fd5b505af1158015611392573d6000803e3d6000fd5b5050505050565b600160009054906101000a900473ffffffffffffffffffffffffffffffffffffffff1681565b611400878787878787876000604051806020016040528060008152506040518060200160405280600081525060405180602001604052806000815250611f66565b50505050505050565b60008054906101000a900473ffffffffffffffffffffffffffffffffffffffff1681565b600a818154811061143d57600080fd5b9060005260206000209060050201600091509050806000015490806001018054611466906136ed565b80601f0160208091040260200160405190810160405280929190818152602001828054611492906136ed565b80156114df5780601f106114b4576101008083540402835291602001916114df565b820191906000526020600020905b8154815290600101906020018083116114c257829003601f168201915b5050505050908060020180546114f4906136ed565b80601f0160208091040260200160405190810160405280929190818152602001828054611520906136ed565b801561156d5780601f106115425761010080835404028352916020019161156d565b820191906000526020600020905b81548152906001019060200180831161155057829003601f168201915b5050505050908060030154908060040154905085565b600060086000848152602001908152602001600020600083815260200190815260200160002054905092915050565b60095481565b60036020528060005260406000206000915054906101000a900460ff1681565b6001808111156115eb576115ea612e39565b5b60ff168460ff161115611633576040517f08c379a000000000000000000000000000000000000000000000000000000000815260040161162a9061412c565b60405180910390fd5b61165b8b8b8b8b8b8b8b8b60ff16600181111561165357611652612e39565b5b8b8b8b611f66565b5050505050505050505050565b60025481565b60008054906101000a900473ffffffffffffffffffffffffffffffffffffffff1673ffffffffffffffffffffffffffffffffffffffff163373ffffffffffffffffffffffffffffffffffffffff16146116fc576040517f08c379a00000000000000000000000000000000000000000000000000000000081526004016116f390614198565b60405180910390fd5b60008111801561170e57506009548111155b61174d576040517f08c379a000000000000000000000000000000000000000000000000000000000815260040161174490614204565b60405180910390fd5b6001600281111561176157611760612e39565b5b6005600083815260200190815260200160002060030160009054906101000a900460ff16600281111561179757611796612e39565b5b146117d7576040517f08c379a00000000000000000000000000000000000000000000000000000000081526004016117ce90614270565b60405180910390fd5b60026005600083815260200190815260200160002060030160006101000a81548160ff0219169083600281111561181157611810612e39565b5b021790555061181f81612560565b807fe58b4afb599bf8dba07885ae4a580e84c53d73a1215ab267654fdb1322c9057a60026040516118509190614290565b60405180910390a250565b6060600a805480602002602001604051908101604052809291908181526020016000905b828210156119f357838290600052602060002090600502016040518060a0016040529081600082015481526020016001820180546118bc906136ed565b80601f01602080910402602001604051908101604052809291908181526020018280546118e8906136ed565b80156119355780601f1061190a57610100808354040283529160200191611935565b820191906000526020600020905b81548152906001019060200180831161191857829003601f168201915b5050505050815260200160028201805461194e906136ed565b80601f016020809104026020016040519081016040528092919081815260200182805461197a906136ed565b80156119c75780601f1061199c576101008083540402835291602001916119c7565b820191906000526020600020905b8154815290600101906020018083116119aa57829003601f168201915b50505050508152602001600382015481526020016004820154815250508152602001906001019061187f565b50505050905090565b600060608060606000600760008773ffffffffffffffffffffffffffffffffffffffff1673ffffffffffffffffffffffffffffffffffffffff16815260200190815260200160002090508060000160009054906101000a900460ff16816001018260020183600301828054611a70906136ed565b80601f0160208091040260200160405190810160405280929190818152602001828054611a9c906136ed565b8015611ae95780601f10611abe57610100808354040283529160200191611ae9565b820191906000526020600020905b815481529060010190602001808311611acc57829003601f168201915b50505050509250818054611afc906136ed565b80601f0160208091040260200160405190810160405280929190818152602001828054611b28906136ed565b8015611b755780601f10611b4a57610100808354040283529160200191611b75565b820191906000526020600020905b815481529060010190602001808311611b5857829003601f168201915b50505050509150808054611b88906136ed565b80601f0160208091040260200160405190810160405280929190818152602001828054611bb4906136ed565b8015611c015780601f10611bd657610100808354040283529160200191611c01565b820191906000526020600020905b815481529060010190602001808311611be457829003601f168201915b505050505090509450945094509450509193509193565b60008054906101000a900473ffffffffffffffffffffffffffffffffffffffff1673ffffffffffffffffffffffffffffffffffffffff163373ffffffffffffffffffffffffffffffffffffffff1614611ca6576040517f08c379a0000000000000000000000000000000000000000000000000000000008152600401611c9d90613824565b60405180910390fd5b6001600360008373ffffffffffffffffffffffffffffffffffffffff1673ffffffffffffffffffffffffffffffffffffffff16815260200190815260200160002060006101000a81548160ff0219169083151502179055508073ffffffffffffffffffffffffffffffffffffffff167faab7954e9d246b167ef88aeddad35209ca2489d95a8aeb59e288d9b19fae5a5460405160405180910390a250565b6000606080606060006006600087815260200190815260200160002090508060000160009054906101000a900460ff166001811115611d8657611d85612e39565b5b816001018260020183600301828054611d9e906136ed565b80601f0160208091040260200160405190810160405280929190818152602001828054611dca906136ed565b8015611e175780601f10611dec57610100808354040283529160200191611e17565b820191906000526020600020905b815481529060010190602001808311611dfa57829003601f168201915b50505050509250818054611e2a906136ed565b80601f0160208091040260200160405190810160405280929190818152602001828054611e56906136ed565b8015611ea35780601f10611e7857610100808354040283529160200191611ea3565b820191906000526020600020905b815481529060010190602001808311611e8657829003601f168201915b50505050509150808054611eb6906136ed565b80601f0160208091040260200160405190810160405280929190818152602001828054611ee2906136ed565b8015611f2f5780601f10611f0457610100808354040283529160200191611f2f565b820191906000526020600020905b815481529060010190602001808311611f1257829003601f168201915b505050505090509450945094509450509193509193565b60046020528060005260406000206000915054906101000a900460ff1681565b60008054906101000a900473ffffffffffffffffffffffffffffffffffffffff1673ffffffffffffffffffffffffffffffffffffffff163373ffffffffffffffffffffffffffffffffffffffff1614611ff4576040517f08c379a0000000000000000000000000000000000000000000000000000000008152600401611feb906142f7565b60405180910390fd5b88518a5114612038576040517f08c379a000000000000000000000000000000000000000000000000000000000815260040161202f90614363565b60405180910390fd5b87518a511461207c576040517f08c379a0000000000000000000000000000000000000000000000000000000008152600401612073906143cf565b60405180910390fd5b86518a51146120c0576040517f08c379a00000000000000000000000000000000000000000000000000000000081526004016120b79061443b565b60405180910390fd5b848610612102576040517f08c379a00000000000000000000000000000000000000000000000000000000081526004016120f9906144a7565b60405180910390fd5b60018081111561211557612114612e39565b5b84600181111561212857612127612e39565b5b036121fa576000835111612171576040517f08c379a000000000000000000000000000000000000000000000000000000000815260040161216890614513565b60405180910390fd5b60008251116121b5576040517f08c379a00000000000000000000000000000000000000000000000000000000081526004016121ac9061457f565b60405180910390fd5b60008151116121f9576040517f08c379a00000000000000000000000000000000000000000000000000000000081526004016121f0906145eb565b60405180910390fd5b5b6009600081548092919061220d9061460b565b91905055506000600560006009548152602001908152602001600020905060095481600001819055508b81600101908161224791906139e6565b5060018160030160006101000a81548160ff021916908360028111156122705761226f612e39565b5b021790555086816004018190555085816005018190555060005b8b518110156123b6578160020160405180608001604052808e84815181106122b5576122b4614653565b5b602002602001015181526020018d84815181106122d5576122d4614653565b5b602002602001015181526020018c84815181106122f5576122f4614653565b5b602002602001015181526020018b848151811061231557612314614653565b5b60200260200101518152509080600181540180825580915050600190039060005260206000209060040201600090919091909150600082015181600001908161235e91906139e6565b50602082015181600101908161237491906139e6565b50604082015181600201908161238a91906139e6565b5060608201518160030190816123a091906139e6565b50505080806123ae9061460b565b91505061228a565b506040518060a001604052808660018111156123d5576123d4612e39565b5b81526020018581526020018481526020018381526020016001151581525060066000600954815260200190815260200160002060008201518160000160006101000a81548160ff0219169083600181111561243357612432612e39565b5b0217905550602082015181600101908161244d91906139e6565b50604082015181600201908161246391906139e6565b50606082015181600301908161247991906139e6565b5060808201518160040160006101000a81548160ff0219169083151502179055509050506009547f52be7c4e77b4de76b7607d621492061fe13b58597e72dfb5e51ab8f6187ed1418d6040516124cf9190614682565b60405180910390a26009547fe58b4afb599bf8dba07885ae4a580e84c53d73a1215ab267654fdb1322c9057a600160405161250a9190614290565b60405180910390a26009547fd1371494c40d1472f3d3ec53454645f7929952bebb02d486d22ddf6d986aa6958686868660405161254a94939291906146ec565b60405180910390a2505050505050505050505050565b60006005600083815260200190815260200160002090506000806000805b84600201805490508110156125e757600060086000888152602001908152602001600020600083815260200190815260200160002054905080836125c29190613fab565b9250848111156125d3578094508193505b5080806125df9061460b565b91505061257e565b50600a6040518060a0016040528087815260200186600101805461260a906136ed565b80601f0160208091040260200160405190810160405280929190818152602001828054612636906136ed565b80156126835780601f1061265857610100808354040283529160200191612683565b820191906000526020600020905b81548152906001019060200180831161266657829003601f168201915b5050505050815260200160008760020180549050116126d7576040518060400160405280600381526020017f4e2f410000000000000000000000000000000000000000000000000000000000815250612788565b8660020185815481106126ed576126ec614653565b5b90600052602060002090600402016000018054612709906136ed565b80601f0160208091040260200160405190810160405280929190818152602001828054612735906136ed565b80156127825780601f1061275757610100808354040283529160200191612782565b820191906000526020600020905b81548152906001019060200180831161276557829003601f168201915b50505050505b81526020018581526020018381525090806001815401808255809150506001900390600052602060002090600502016000909190919091506000820151816000015560208201518160010190816127df91906139e6565b5060408201518160020190816127f591906139e6565b50606082015181600301556080820151816004015550505050505050565b6000604051905090565b600080fd5b600080fd5b600073ffffffffffffffffffffffffffffffffffffffff82169050919050565b600061285282612827565b9050919050565b61286281612847565b811461286d57600080fd5b50565b60008135905061287f81612859565b92915050565b6000819050919050565b61289881612885565b81146128a357600080fd5b50565b6000813590506128b58161288f565b92915050565b600080604083850312156128d2576128d161281d565b5b60006128e085828601612870565b92505060206128f1858286016128a6565b9150509250929050565b60008115159050919050565b612910816128fb565b82525050565b600060208201905061292b6000830184612907565b92915050565b600080fd5b600080fd5b6000601f19601f8301169050919050565b7f4e487b7100000000000000000000000000000000000000000000000000000000600052604160045260246000fd5b6129848261293b565b810181811067ffffffffffffffff821117156129a3576129a261294c565b5b80604052505050565b60006129b6612813565b90506129c2828261297b565b919050565b600067ffffffffffffffff8211156129e2576129e161294c565b5b6129eb8261293b565b9050602081019050919050565b82818337600083830152505050565b6000612a1a612a15846129c7565b6129ac565b905082815260208101848484011115612a3657612a35612936565b5b612a418482856129f8565b509392505050565b600082601f830112612a5e57612a5d612931565b5b8135612a6e848260208601612a07565b91505092915050565b60008060008060808587031215612a9157612a9061281d565b5b6000612a9f87828801612870565b945050602085013567ffffffffffffffff811115612ac057612abf612822565b5b612acc87828801612a49565b935050604085013567ffffffffffffffff811115612aed57612aec612822565b5b612af987828801612a49565b925050606085013567ffffffffffffffff811115612b1a57612b19612822565b5b612b2687828801612a49565b91505092959194509250565b600060208284031215612b4857612b4761281d565b5b6000612b5684828501612870565b91505092915050565b600080fd5b60006101a08284031215612b7b57612b7a612b5f565b5b81905092915050565b60008060006101e08486031215612b9e57612b9d61281d565b5b6000612bac868287016128a6565b9350506020612bbd868287016128a6565b9250506040612bce86828701612b64565b9150509250925092565b600060208284031215612bee57612bed61281d565b5b6000612bfc848285016128a6565b91505092915050565b600081519050919050565b600082825260208201905092915050565b6000819050602082019050919050565b600081519050919050565b600082825260208201905092915050565b60005b83811015612c6b578082015181840152602081019050612c50565b60008484015250505050565b6000612c8282612c31565b612c8c8185612c3c565b9350612c9c818560208601612c4d565b612ca58161293b565b840191505092915050565b60006080830160008301518482036000860152612ccd8282612c77565b91505060208301518482036020860152612ce78282612c77565b91505060408301518482036040860152612d018282612c77565b91505060608301518482036060860152612d1b8282612c77565b9150508091505092915050565b6000612d348383612cb0565b905092915050565b6000602082019050919050565b6000612d5482612c05565b612d5e8185612c10565b935083602082028501612d7085612c21565b8060005b85811015612dac5784840389528151612d8d8582612d28565b9450612d9883612d3c565b925060208a01995050600181019050612d74565b50829750879550505050505092915050565b60006020820190508181036000830152612dd88184612d49565b905092915050565b612de981612885565b82525050565b600082825260208201905092915050565b6000612e0b82612c31565b612e158185612def565b9350612e25818560208601612c4d565b612e2e8161293b565b840191505092915050565b7f4e487b7100000000000000000000000000000000000000000000000000000000600052602160045260246000fd5b60038110612e7957612e78612e39565b5b50565b6000819050612e8a82612e68565b919050565b6000612e9a82612e7c565b9050919050565b612eaa81612e8f565b82525050565b600060a082019050612ec56000830188612de0565b8181036020830152612ed78187612e00565b9050612ee66040830186612ea1565b612ef36060830185612de0565b612f006080830184612de0565b9695505050505050565b6000819050919050565b6000612f2f612f2a612f2584612827565b612f0a565b612827565b9050919050565b6000612f4182612f14565b9050919050565b6000612f5382612f36565b9050919050565b612f6381612f48565b82525050565b6000602082019050612f7e6000830184612f5a565b92915050565b600067ffffffffffffffff821115612f9f57612f9e61294c565b5b602082029050602081019050919050565b600080fd5b6000612fc8612fc384612f84565b6129ac565b90508083825260208201905060208402830185811115612feb57612fea612fb0565b5b835b8181101561303257803567ffffffffffffffff8111156130105761300f612931565b5b80860161301d8982612a49565b85526020850194505050602081019050612fed565b5050509392505050565b600082601f83011261305157613050612931565b5b8135613061848260208601612fb5565b91505092915050565b600080600080600080600060e0888a0312156130895761308861281d565b5b600088013567ffffffffffffffff8111156130a7576130a6612822565b5b6130b38a828b01612a49565b975050602088013567ffffffffffffffff8111156130d4576130d3612822565b5b6130e08a828b0161303c565b965050604088013567ffffffffffffffff81111561310157613100612822565b5b61310d8a828b0161303c565b955050606088013567ffffffffffffffff81111561312e5761312d612822565b5b61313a8a828b0161303c565b945050608088013567ffffffffffffffff81111561315b5761315a612822565b5b6131678a828b0161303c565b93505060a06131788a828b016128a6565b92505060c06131898a828b016128a6565b91505092959891949750929550565b6131a181612847565b82525050565b60006020820190506131bc6000830184613198565b92915050565b600060a0820190506131d76000830188612de0565b81810360208301526131e98187612e00565b905081810360408301526131fd8186612e00565b905061320c6060830185612de0565b6132196080830184612de0565b9695505050505050565b6000806040838503121561323a5761323961281d565b5b6000613248858286016128a6565b9250506020613259858286016128a6565b9150509250929050565b60006020820190506132786000830184612de0565b92915050565b600060ff82169050919050565b6132948161327e565b811461329f57600080fd5b50565b6000813590506132b18161328b565b92915050565b60008060008060008060008060008060006101608c8e0312156132dd576132dc61281d565b5b60008c013567ffffffffffffffff8111156132fb576132fa612822565b5b6133078e828f01612a49565b9b505060208c013567ffffffffffffffff81111561332857613327612822565b5b6133348e828f0161303c565b9a505060408c013567ffffffffffffffff81111561335557613354612822565b5b6133618e828f0161303c565b99505060608c013567ffffffffffffffff81111561338257613381612822565b5b61338e8e828f0161303c565b98505060808c013567ffffffffffffffff8111156133af576133ae612822565b5b6133bb8e828f0161303c565b97505060a06133cc8e828f016128a6565b96505060c06133dd8e828f016128a6565b95505060e06133ee8e828f016132a2565b9450506101008c013567ffffffffffffffff8111156134105761340f612822565b5b61341c8e828f01612a49565b9350506101208c013567ffffffffffffffff81111561343e5761343d612822565b5b61344a8e828f01612a49565b9250506101408c013567ffffffffffffffff81111561346c5761346b612822565b5b6134788e828f01612a49565b9150509295989b509295989b9093969950565b600081519050919050565b600082825260208201905092915050565b6000819050602082019050919050565b6134c081612885565b82525050565b600060a0830160008301516134de60008601826134b7565b50602083015184820360208601526134f68282612c77565b915050604083015184820360408601526135108282612c77565b915050606083015161352560608601826134b7565b50608083015161353860808601826134b7565b508091505092915050565b600061354f83836134c6565b905092915050565b6000602082019050919050565b600061356f8261348b565b6135798185613496565b93508360208202850161358b856134a7565b8060005b858110156135c757848403895281516135a88582613543565b94506135b383613557565b925060208a0199505060018101905061358f565b50829750879550505050505092915050565b600060208201905081810360008301526135f38184613564565b905092915050565b60006080820190506136106000830187612907565b81810360208301526136228186612e00565b905081810360408301526136368185612e00565b9050818103606083015261364a8184612e00565b905095945050505050565b61365e8161327e565b82525050565b60006080820190506136796000830187613655565b818103602083015261368b8186612e00565b9050818103604083015261369f8185612e00565b905081810360608301526136b38184612e00565b905095945050505050565b7f4e487b7100000000000000000000000000000000000000000000000000000000600052602260045260246000fd5b6000600282049050600182168061370557607f821691505b602082108103613718576137176136be565b5b50919050565b600081905092915050565b60008190508160005260206000209050919050565b6000815461374b816136ed565b613755818661371e565b945060018216600081146137705760018114613785576137b8565b60ff19831686528115158202860193506137b8565b61378e85613729565b60005b838110156137b057815481890152600182019150602081019050613791565b838801955050505b50505092915050565b60006137cd828461373e565b915081905092915050565b7f4f6e6c79206f776e65722063616e2077686974656c6973740000000000000000600082015250565b600061380e601883612def565b9150613819826137d8565b602082019050919050565b6000602082019050818103600083015261383d81613801565b9050919050565b60008190508160005260206000209050919050565b60006020601f8301049050919050565b600082821b905092915050565b6000600883026138a67fffffffffffffffffffffffffffffffffffffffffffffffffffffffffffffffff82613869565b6138b08683613869565b95508019841693508086168417925050509392505050565b60006138e36138de6138d984612885565b612f0a565b612885565b9050919050565b6000819050919050565b6138fd836138c8565b613911613909826138ea565b848454613876565b825550505050565b600090565b613926613919565b6139318184846138f4565b505050565b5b818110156139555761394a60008261391e565b600181019050613937565b5050565b601f82111561399a5761396b81613844565b61397484613859565b81016020851015613983578190505b61399761398f85613859565b830182613936565b50505b505050565b600082821c905092915050565b60006139bd6000198460080261399f565b1980831691505092915050565b60006139d683836139ac565b9150826002028217905092915050565b6139ef82612c31565b67ffffffffffffffff811115613a0857613a0761294c565b5b613a1282546136ed565b613a1d828285613959565b600060209050601f831160018114613a505760008415613a3e578287015190505b613a4885826139ca565b865550613ab0565b601f198416613a5e86613844565b60005b82811015613a8657848901518255600182019150602085019450602081019050613a61565b86831015613aa35784890151613a9f601f8916826139ac565b8355505b6001600288020188555050505b505050505050565b60006060820190508181036000830152613ad28186612e00565b90508181036020830152613ae68185612e00565b90508181036040830152613afa8184612e00565b9050949350505050565b7f4f6e6c79206f776e65722063616e207570646174652070726f66696c65730000600082015250565b6000613b3a601e83612def565b9150613b4582613b04565b602082019050919050565b60006020820190508181036000830152613b6981613b2d565b9050919050565b7f456c656374696f6e206973206e6f742061637469766500000000000000000000600082015250565b6000613ba6601683612def565b9150613bb182613b70565b602082019050919050565b60006020820190508181036000830152613bd581613b99565b9050919050565b7f4f75747369646520766f74696e672077696e646f770000000000000000000000600082015250565b6000613c12601583612def565b9150613c1d82613bdc565b602082019050919050565b60006020820190508181036000830152613c4181613c05565b9050919050565b7f496e76616c69642063616e64696461746520696e646578000000000000000000600082015250565b6000613c7e601783612def565b9150613c8982613c48565b602082019050919050565b60006020820190508181036000830152613cad81613c71565b9050919050565b7f566f746572206973206e6f7420656c696769626c6520666f722074686973206560008201527f6c656374696f6e00000000000000000000000000000000000000000000000000602082015250565b6000613d10602783612def565b9150613d1b82613cb4565b604082019050919050565b60006020820190508181036000830152613d3f81613d03565b9050919050565b7f50726f6f662073636f7065206d757374206d6174636820656c656374696f6e2060008201527f4944000000000000000000000000000000000000000000000000000000000000602082015250565b6000613da2602283612def565b9150613dad82613d46565b604082019050919050565b60006020820190508181036000830152613dd181613d95565b9050919050565b7f50726f6f66206d657373616765206d757374206d617463682063616e6469646160008201527f746520696e646578000000000000000000000000000000000000000000000000602082015250565b6000613e34602883612def565b9150613e3f82613dd8565b604082019050919050565b60006020820190508181036000830152613e6381613e27565b9050919050565b6000613e7960208401846128a6565b905092915050565b600082905092915050565b82818337505050565b613ea26101008383613e8c565b5050565b6101a08201613eb86000830183613e6a565b613ec560008501826134b7565b50613ed36020830183613e6a565b613ee060208501826134b7565b50613eee6040830183613e6a565b613efb60408501826134b7565b50613f096060830183613e6a565b613f1660608501826134b7565b50613f246080830183613e6a565b613f3160808501826134b7565b50613f3f60a0830183613e81565b613f4c60a0850182613e95565b50505050565b60006101c082019050613f686000830185612de0565b613f756020830184613ea6565b9392505050565b7f4e487b7100000000000000000000000000000000000000000000000000000000600052601160045260246000fd5b6000613fb682612885565b9150613fc183612885565b9250828201905080821115613fd957613fd8613f7c565b5b92915050565b7f4e6f742077686974656c69737465642062792041646d696e0000000000000000600082015250565b6000614015601883612def565b915061402082613fdf565b602082019050919050565b6000602082019050818103600083015261404481614008565b9050919050565b7f416c7265616479207265676973746572656420616e206964656e746974790000600082015250565b6000614081601e83612def565b915061408c8261404b565b602082019050919050565b600060208201905081810360008301526140b081614074565b9050919050565b60006040820190506140cc6000830185612de0565b6140d96020830184612de0565b9392505050565b7f496e76616c696420656c656374696f6e20747970650000000000000000000000600082015250565b6000614116601583612def565b9150614121826140e0565b602082019050919050565b6000602082019050818103600083015261414581614109565b9050919050565b7f4f6e6c79206f776e65722063616e207465726d696e6174650000000000000000600082015250565b6000614182601883612def565b915061418d8261414c565b602082019050919050565b600060208201905081810360008301526141b181614175565b9050919050565b7f496e76616c696420656c656374696f6e20494400000000000000000000000000600082015250565b60006141ee601383612def565b91506141f9826141b8565b602082019050919050565b6000602082019050818103600083015261421d816141e1565b9050919050565b7f456c656374696f6e206e6f74206f6e676f696e67000000000000000000000000600082015250565b600061425a601483612def565b915061426582614224565b602082019050919050565b600060208201905081810360008301526142898161424d565b9050919050565b60006020820190506142a56000830184612ea1565b92915050565b7f4f6e6c79206f776e65722063616e2063726561746520656c656374696f6e7300600082015250565b60006142e1601f83612def565b91506142ec826142ab565b602082019050919050565b60006020820190508181036000830152614310816142d4565b9050919050565b7f4d69736d617463683a2063616e646964617465732f6c6f676f73000000000000600082015250565b600061434d601a83612def565b915061435882614317565b602082019050919050565b6000602082019050818103600083015261437c81614340565b9050919050565b7f4d69736d617463683a2063616e646964617465732f6d616e69666573746f7300600082015250565b60006143b9601f83612def565b91506143c482614383565b602082019050919050565b600060208201905081810360008301526143e8816143ac565b9050919050565b7f4d69736d617463683a2063616e646964617465732f766964656f730000000000600082015250565b6000614425601b83612def565b9150614430826143ef565b602082019050919050565b6000602082019050818103600083015261445481614418565b9050919050565b7f496e76616c69642074696d652072616e67650000000000000000000000000000600082015250565b6000614491601283612def565b915061449c8261445b565b602082019050919050565b600060208201905081810360008301526144c081614484565b9050919050565b7f4469737472696374207265717569726564000000000000000000000000000000600082015250565b60006144fd601183612def565b9150614508826144c7565b602082019050919050565b6000602082019050818103600083015261452c816144f0565b9050919050565b7f4c6f63616c20626f647920726571756972656400000000000000000000000000600082015250565b6000614569601383612def565b915061457482614533565b602082019050919050565b600060208201905081810360008301526145988161455c565b9050919050565b7f57617264206e756d626572207265717569726564000000000000000000000000600082015250565b60006145d5601483612def565b91506145e08261459f565b602082019050919050565b60006020820190508181036000830152614604816145c8565b9050919050565b600061461682612885565b91507fffffffffffffffffffffffffffffffffffffffffffffffffffffffffffffffff820361464857614647613f7c565b5b600182019050919050565b7f4e487b7100000000000000000000000000000000000000000000000000000000600052603260045260246000fd5b6000602082019050818103600083015261469c8184612e00565b905092915050565b600281106146b5576146b4612e39565b5b50565b60008190506146c6826146a4565b919050565b60006146d6826146b8565b9050919050565b6146e6816146cb565b82525050565b600060808201905061470160008301876146dd565b81810360208301526147138186612e00565b905081810360408301526147278185612e00565b9050818103606083015261473b8184612e00565b90509594505050505056fea2646970667358221220d7b640f311909edb6e150b5a8fa2bf561bfb87d3461b12d2c2933aca8a1a30ca64736f6c63430008140033",
  "linkReferences": {},
  "deployedLinkReferences": {}
}